{
  "transactions": [
    {
      "hash": "0x9dd4b8fa8b368246f2fd8d1a520dfef4bb5c6ce98fb2f5e7a59d1ffee20150bf",
      "transactionType": "CALL",
      "contractName": null,
      "contractAddress": "0x482bbb4eba06cd057a8cc85f46bc4f3a43cf42bc",
      "function": "applyChainUpdates((uint64,bool,bytes,bytes,(bool,uint128,uint128),(bool,uint128,uint128))[])",
      "arguments": [
        "[(16015286601757825753, true, 0x000000000000000000000000426fdc2b5f70d4db53e9e3ebb871493da48568e4, 0x0000000000000000000000001c48f5cf649d3e7d601511424471dd98226206d9, (false, 0, 0), (false, 0, 0))]"
      ],
      "transaction": {
        "from": "0x94c1405e849c1e8c78066451dfad20e211ff3141",
        "to": "0x482bbb4eba06cd057a8cc85f46bc4f3a43cf42bc",
        "gas": "0x77bae",
        "value": "0x0",
        "input": "0xdb6327dc000000000000000000000000000000000000000000000000000000000000002000000000000000000000000000000000000000000000000000000000000000010000000000000000000000000000000000000000000000000000000000000020000000000000000000000000000000000000000000000000de41ba4fc9d91ad90000000000000000000000000000000000000000000000000000000000000001000000000000000000000000000000000000000000000000000000000000014000000000000000000000000000000000000000000000000000000000000001800000000000000000000000000000000000000000000000000000000000000000000000000000000000000000000000000000000000000000000000000000000000000000000000000000000000000000000000000000000000000000000000000000000000000000000000000000000000000000000000000000000000000000000000000000000000000000000000000000000000000000000000000000000000000000000000000000000000000000000000000000000000000000000000000000000000000000000000000000000000000000000000000000000000000020000000000000000000000000426fdc2b5f70d4db53e9e3ebb871493da48568e400000000000000000000000000000000000000000000000000000000000000200000000000000000000000001c48f5cf649d3e7d601511424471dd98226206d9",
        "nonce": "0x2d",
        "chainId": "0x12c"
      },
      "additionalContracts": [],
      "isFixedGasLimit": false
    }
  ],
  "receipts": [
    {
      "status": "0x1",
      "cumulativeGasUsed": "0x0",
      "logs": [
        {
          "address": "0x000000000000000000000000000000000000800a",
          "topics": [
            "0xddf252ad1be2c89b69c2b068fc378daa952ba7f163c4a11628f55a4df523b3ef",
            "0x00000000000000000000000094c1405e849c1e8c78066451dfad20e211ff3141",
            "0x0000000000000000000000000000000000000000000000000000000000008001"
          ],
          "data": "0x0000000000000000000000000000000000000000000000000000164d2ba472ae",
          "blockHash": "0xfccb3ece3a3a0f2df67373e69908fa5e638bd9e99562062764f158bc04d77f24",
          "blockNumber": "0x5587db",
          "blockTimestamp": "0x6892bb8b",
          "transactionHash": "0x9dd4b8fa8b368246f2fd8d1a520dfef4bb5c6ce98fb2f5e7a59d1ffee20150bf",
          "transactionIndex": "0x0",
          "logIndex": "0x0",
          "removed": false
        },
        {
          "address": "0x000000000000000000000000000000000000800a",
          "topics": [
            "0xddf252ad1be2c89b69c2b068fc378daa952ba7f163c4a11628f55a4df523b3ef",
            "0x0000000000000000000000000000000000000000000000000000000000008001",
            "0x00000000000000000000000094c1405e849c1e8c78066451dfad20e211ff3141"
          ],
          "data": "0x00000000000000000000000000000000000000000000000000000b2695d5f72e",
          "blockHash": "0xfccb3ece3a3a0f2df67373e69908fa5e638bd9e99562062764f158bc04d77f24",
          "blockNumber": "0x5587db",
          "blockTimestamp": "0x6892bb8b",
          "transactionHash": "0x9dd4b8fa8b368246f2fd8d1a520dfef4bb5c6ce98fb2f5e7a59d1ffee20150bf",
          "transactionIndex": "0x0",
          "logIndex": "0x1",
          "removed": false
        },
        {
          "address": "0x482bbb4eba06cd057a8cc85f46bc4f3a43cf42bc",
          "topics": [
            "0x8d340f17e19058004c20453540862a9c62778504476f6756755cb33bcd6c38c2"
          ],
          "data": "0x000000000000000000000000000000000000000000000000de41ba4fc9d91ad9000000000000000000000000000000000000000000000000000000000000010000000000000000000000000000000000000000000000000000000000000000000000000000000000000000000000000000000000000000000000000000000000000000000000000000000000000000000000000000000000000000000000000000000000000000000000000000000000000000000000000000000000000000000000000000000000000000000000000000000000000000000000000000000000000000000000000000000000000000000000000000000000000000000000000000000000000000000000000000000000000000000000000000000000000000200000000000000000000000001c48f5cf649d3e7d601511424471dd98226206d9",
          "blockHash": "0xfccb3ece3a3a0f2df67373e69908fa5e638bd9e99562062764f158bc04d77f24",
          "blockNumber": "0x5587db",
          "blockTimestamp": "0x6892bb8b",
          "transactionHash": "0x9dd4b8fa8b368246f2fd8d1a520dfef4bb5c6ce98fb2f5e7a59d1ffee20150bf",
          "transactionIndex": "0x0",
          "logIndex": "0x2",
          "removed": false
        },
        {
          "address": "0x000000000000000000000000000000000000800a",
          "topics": [
            "0xddf252ad1be2c89b69c2b068fc378daa952ba7f163c4a11628f55a4df523b3ef",
            "0x0000000000000000000000000000000000000000000000000000000000008001",
            "0x00000000000000000000000094c1405e849c1e8c78066451dfad20e211ff3141"
          ],
          "data": "0x000000000000000000000000000000000000000000000000000007aa9673b480",
          "blockHash": "0xfccb3ece3a3a0f2df67373e69908fa5e638bd9e99562062764f158bc04d77f24",
          "blockNumber": "0x5587db",
          "blockTimestamp": "0x6892bb8b",
          "transactionHash": "0x9dd4b8fa8b368246f2fd8d1a520dfef4bb5c6ce98fb2f5e7a59d1ffee20150bf",
          "transactionIndex": "0x0",
          "logIndex": "0x3",
          "removed": false
        }
      ],
      "logsBloom": "0x00000000000400400000000000000000000000000000000000000000000000000000000000000000000000000000000000000000000000000004000000000000000000000000040000000008100000000000000000000000000000000000080000000000000000000000000000000000000000000000000000000030000000000000010000000000000004000000000000000000000000000000000000000000000000000000100000000000000000000000000000000000000000000000000000000002008000000000000002000000000000000000000000000000000000000000000000000000008000800000000000000000000000000100000000000000",
      "type": "0x2",
      "transactionHash": "0x9dd4b8fa8b368246f2fd8d1a520dfef4bb5c6ce98fb2f5e7a59d1ffee20150bf",
      "transactionIndex": "0x0",
      "blockHash": "0xfccb3ece3a3a0f2df67373e69908fa5e638bd9e99562062764f158bc04d77f24",
      "blockNumber": "0x5587db",
      "gasUsed": "0x2569c",
      "effectiveGasPrice": "0x17d7840",
      "from": "0x94c1405e849c1e8c78066451dfad20e211ff3141",
      "to": "0x482bbb4eba06cd057a8cc85f46bc4f3a43cf42bc",
      "contractAddress": null,
      "l1BatchNumber": null,
      "l1BatchTxIndex": null,
      "l2ToL1Logs": []
    }
  ],
  "libraries": [],
  "pending": [],
  "returns": {},
  "timestamp": 1754446734505,
  "chain": 300,
  "commit": "3f67df2"
}