{
  "transactions": [
    {
      "hash": "0x05ca6d147fe530f8d6cafe3c75cf8cd67100508614f1bd4519062347be37f211",
      "transactionType": "CALL",
      "contractName": null,
      "contractAddress": "0xc7b3b69a67259c2b1e75c5bb9cfae3c6d9cc3798",
      "function": "applyChainUpdates((uint64,bool,bytes,bytes,(bool,uint128,uint128),(bool,uint128,uint128))[])",
      "arguments": [
        "[(16015286601757825753, true, 0x0000000000000000000000007a96bb1c9c9ab378fcc111cc1808d82841cf83fc, 0x0000000000000000000000009a1a5372929061140ea3892b7c46f1aaa9f5d68f, (false, 0, 0), (false, 0, 0))]"
      ],
      "transaction": {
        "from": "0x94c1405e849c1e8c78066451dfad20e211ff3141",
        "to": "0xc7b3b69a67259c2b1e75c5bb9cfae3c6d9cc3798",
        "gas": "0x77bae",
        "value": "0x0",
        "input": "0xdb6327dc000000000000000000000000000000000000000000000000000000000000002000000000000000000000000000000000000000000000000000000000000000010000000000000000000000000000000000000000000000000000000000000020000000000000000000000000000000000000000000000000de41ba4fc9d91ad900000000000000000000000000000000000000000000000000000000000000010000000000000000000000000000000000000000000000000000000000000140000000000000000000000000000000000000000000000000000000000000018000000000000000000000000000000000000000000000000000000000000000000000000000000000000000000000000000000000000000000000000000000000000000000000000000000000000000000000000000000000000000000000000000000000000000000000000000000000000000000000000000000000000000000000000000000000000000000000000000000000000000000000000000000000000000000000000000000000000000000000000000000000000000000000000000000000000000000000000000000000000000000000000000000000000000200000000000000000000000007a96bb1c9c9ab378fcc111cc1808d82841cf83fc00000000000000000000000000000000000000000000000000000000000000200000000000000000000000009a1a5372929061140ea3892b7c46f1aaa9f5d68f",
        "nonce": "0x26",
        "chainId": "0x12c"
      },
      "additionalContracts": [],
      "isFixedGasLimit": false
    }
  ],
  "receipts": [
    {
      "status": "0x1",
      "cumulativeGasUsed": "0x0",
      "logs": [
        {
          "address": "0x000000000000000000000000000000000000800a",
          "topics": [
            "0xddf252ad1be2c89b69c2b068fc378daa952ba7f163c4a11628f55a4df523b3ef",
            "0x00000000000000000000000094c1405e849c1e8c78066451dfad20e211ff3141",
            "0x0000000000000000000000000000000000000000000000000000000000008001"
          ],
          "data": "0x0000000000000000000000000000000000000000000000000000164d2ba472ae",
          "blockHash": "0xca84a5a17f9bc33e978fe50a8e29fbd5825ce3ff62b65b3ec8dab3d35ca07b21",
          "blockNumber": "0x5587c6",
          "blockTimestamp": "0x6892b957",
          "transactionHash": "0x05ca6d147fe530f8d6cafe3c75cf8cd67100508614f1bd4519062347be37f211",
          "transactionIndex": "0x0",
          "logIndex": "0x0",
          "removed": false
        },
        {
          "address": "0x000000000000000000000000000000000000800a",
          "topics": [
            "0xddf252ad1be2c89b69c2b068fc378daa952ba7f163c4a11628f55a4df523b3ef",
            "0x0000000000000000000000000000000000000000000000000000000000008001",
            "0x00000000000000000000000094c1405e849c1e8c78066451dfad20e211ff3141"
          ],
          "data": "0x00000000000000000000000000000000000000000000000000000b2695d5f72e",
          "blockHash": "0xca84a5a17f9bc33e978fe50a8e29fbd5825ce3ff62b65b3ec8dab3d35ca07b21",
          "blockNumber": "0x5587c6",
          "blockTimestamp": "0x6892b957",
          "transactionHash": "0x05ca6d147fe530f8d6cafe3c75cf8cd67100508614f1bd4519062347be37f211",
          "transactionIndex": "0x0",
          "logIndex": "0x1",
          "removed": false
        },
        {
          "address": "0xc7b3b69a67259c2b1e75c5bb9cfae3c6d9cc3798",
          "topics": [
            "0x8d340f17e19058004c20453540862a9c62778504476f6756755cb33bcd6c38c2"
          ],
          "data": "0x000000000000000000000000000000000000000000000000de41ba4fc9d91ad9000000000000000000000000000000000000000000000000000000000000010000000000000000000000000000000000000000000000000000000000000000000000000000000000000000000000000000000000000000000000000000000000000000000000000000000000000000000000000000000000000000000000000000000000000000000000000000000000000000000000000000000000000000000000000000000000000000000000000000000000000000000000000000000000000000000000000000000000000000000000000000000000000000000000000000000000000000000000000000000000000000000000000000000000000000200000000000000000000000009a1a5372929061140ea3892b7c46f1aaa9f5d68f",
          "blockHash": "0xca84a5a17f9bc33e978fe50a8e29fbd5825ce3ff62b65b3ec8dab3d35ca07b21",
          "blockNumber": "0x5587c6",
          "blockTimestamp": "0x6892b957",
          "transactionHash": "0x05ca6d147fe530f8d6cafe3c75cf8cd67100508614f1bd4519062347be37f211",
          "transactionIndex": "0x0",
          "logIndex": "0x2",
          "removed": false
        },
        {
          "address": "0x000000000000000000000000000000000000800a",
          "topics": [
            "0xddf252ad1be2c89b69c2b068fc378daa952ba7f163c4a11628f55a4df523b3ef",
            "0x0000000000000000000000000000000000000000000000000000000000008001",
            "0x00000000000000000000000094c1405e849c1e8c78066451dfad20e211ff3141"
          ],
          "data": "0x000000000000000000000000000000000000000000000000000007aa9673b480",
          "blockHash": "0xca84a5a17f9bc33e978fe50a8e29fbd5825ce3ff62b65b3ec8dab3d35ca07b21",
          "blockNumber": "0x5587c6",
          "blockTimestamp": "0x6892b957",
          "transactionHash": "0x05ca6d147fe530f8d6cafe3c75cf8cd67100508614f1bd4519062347be37f211",
          "transactionIndex": "0x0",
          "logIndex": "0x3",
          "removed": false
        }
      ],
      "logsBloom": "0x00000000000400400000000000000000000000000000000000000000000000000000000000000000000000000000000000000000000000000004000000000000000000000000040000000008000000000000000000008000020000000000080000000000000000000000000000000000000000000400000000000030000000000000010000000000000004000000000000000000000000000000000000000000000000000000100000000000000000000000000000000000000000000000000000000002008000000000000002000000000000000000000000000000000000000000000000000000000000000000000000000000000000000100000000000000",
      "type": "0x2",
      "transactionHash": "0x05ca6d147fe530f8d6cafe3c75cf8cd67100508614f1bd4519062347be37f211",
      "transactionIndex": "0x0",
      "blockHash": "0xca84a5a17f9bc33e978fe50a8e29fbd5825ce3ff62b65b3ec8dab3d35ca07b21",
      "blockNumber": "0x5587c6",
      "gasUsed": "0x2569c",
      "effectiveGasPrice": "0x17d7840",
      "from": "0x94c1405e849c1e8c78066451dfad20e211ff3141",
      "to": "0xc7b3b69a67259c2b1e75c5bb9cfae3c6d9cc3798",
      "contractAddress": null,
      "l1BatchNumber": null,
      "l1BatchTxIndex": null,
      "l2ToL1Logs": []
    }
  ],
  "libraries": [],
  "pending": [],
  "returns": {},
  "timestamp": 1754446170113,
  "chain": 300,
  "commit": "3f67df2"
}