{
  "transactions": [
    {
      "hash": "0x6d20dc01e565d50d9123399497c6fda5a862934f01c93d2922a933c9538fd51f",
      "transactionType": "CALL",
      "contractName": null,
      "contractAddress": "0x1f3a193139201b910088e4e984bc48c506845cc1",
      "function": "applyChainUpdates((uint64,bool,bytes,bytes,(bool,uint128,uint128),(bool,uint128,uint128))[])",
      "arguments": [
        "[(16015286601757825753, true, 0x00000000000000000000000094f5b2ea2ba2a19debb57b33af206c14c2e8a938, 0x0000000000000000000000006dfb6c824a220e09d75ac18d1093694cd041b346, (false, 0, 0), (false, 0, 0))]"
      ],
      "transaction": {
        "from": "0x94c1405e849c1e8c78066451dfad20e211ff3141",
        "to": "0x1f3a193139201b910088e4e984bc48c506845cc1",
        "gas": "0x77bae",
        "value": "0x0",
        "input": "0xdb6327dc000000000000000000000000000000000000000000000000000000000000002000000000000000000000000000000000000000000000000000000000000000010000000000000000000000000000000000000000000000000000000000000020000000000000000000000000000000000000000000000000de41ba4fc9d91ad9000000000000000000000000000000000000000000000000000000000000000100000000000000000000000000000000000000000000000000000000000001400000000000000000000000000000000000000000000000000000000000000180000000000000000000000000000000000000000000000000000000000000000000000000000000000000000000000000000000000000000000000000000000000000000000000000000000000000000000000000000000000000000000000000000000000000000000000000000000000000000000000000000000000000000000000000000000000000000000000000000000000000000000000000000000000000000000000000000000000000000000000000000000000000000000000000000000000000000000000000000000000000000000000000000000000000002000000000000000000000000094f5b2ea2ba2a19debb57b33af206c14c2e8a93800000000000000000000000000000000000000000000000000000000000000200000000000000000000000006dfb6c824a220e09d75ac18d1093694cd041b346",
        "nonce": "0x12",
        "chainId": "0x12c"
      },
      "additionalContracts": [],
      "isFixedGasLimit": false
    }
  ],
  "receipts": [
    {
      "status": "0x1",
      "cumulativeGasUsed": "0x0",
      "logs": [
        {
          "address": "0x000000000000000000000000000000000000800a",
          "topics": [
            "0xddf252ad1be2c89b69c2b068fc378daa952ba7f163c4a11628f55a4df523b3ef",
            "0x00000000000000000000000094c1405e849c1e8c78066451dfad20e211ff3141",
            "0x0000000000000000000000000000000000000000000000000000000000008001"
          ],
          "data": "0x0000000000000000000000000000000000000000000000000000164d2ba472ae",
          "blockHash": "0xdf4d5b8fa6e5ba6764d3703958c0479c49306c413a9d437670417b45e59e634d",
          "blockNumber": "0x557068",
          "blockTimestamp": "0x689164ee",
          "transactionHash": "0x6d20dc01e565d50d9123399497c6fda5a862934f01c93d2922a933c9538fd51f",
          "transactionIndex": "0x0",
          "logIndex": "0x0",
          "removed": false
        },
        {
          "address": "0x000000000000000000000000000000000000800a",
          "topics": [
            "0xddf252ad1be2c89b69c2b068fc378daa952ba7f163c4a11628f55a4df523b3ef",
            "0x0000000000000000000000000000000000000000000000000000000000008001",
            "0x00000000000000000000000094c1405e849c1e8c78066451dfad20e211ff3141"
          ],
          "data": "0x00000000000000000000000000000000000000000000000000000b2695d5f72e",
          "blockHash": "0xdf4d5b8fa6e5ba6764d3703958c0479c49306c413a9d437670417b45e59e634d",
          "blockNumber": "0x557068",
          "blockTimestamp": "0x689164ee",
          "transactionHash": "0x6d20dc01e565d50d9123399497c6fda5a862934f01c93d2922a933c9538fd51f",
          "transactionIndex": "0x0",
          "logIndex": "0x1",
          "removed": false
        },
        {
          "address": "0x1f3a193139201b910088e4e984bc48c506845cc1",
          "topics": [
            "0x8d340f17e19058004c20453540862a9c62778504476f6756755cb33bcd6c38c2"
          ],
          "data": "0x000000000000000000000000000000000000000000000000de41ba4fc9d91ad9000000000000000000000000000000000000000000000000000000000000010000000000000000000000000000000000000000000000000000000000000000000000000000000000000000000000000000000000000000000000000000000000000000000000000000000000000000000000000000000000000000000000000000000000000000000000000000000000000000000000000000000000000000000000000000000000000000000000000000000000000000000000000000000000000000000000000000000000000000000000000000000000000000000000000000000000000000000000000000000000000000000000000000000000000000200000000000000000000000006dfb6c824a220e09d75ac18d1093694cd041b346",
          "blockHash": "0xdf4d5b8fa6e5ba6764d3703958c0479c49306c413a9d437670417b45e59e634d",
          "blockNumber": "0x557068",
          "blockTimestamp": "0x689164ee",
          "transactionHash": "0x6d20dc01e565d50d9123399497c6fda5a862934f01c93d2922a933c9538fd51f",
          "transactionIndex": "0x0",
          "logIndex": "0x2",
          "removed": false
        },
        {
          "address": "0x000000000000000000000000000000000000800a",
          "topics": [
            "0xddf252ad1be2c89b69c2b068fc378daa952ba7f163c4a11628f55a4df523b3ef",
            "0x0000000000000000000000000000000000000000000000000000000000008001",
            "0x00000000000000000000000094c1405e849c1e8c78066451dfad20e211ff3141"
          ],
          "data": "0x000000000000000000000000000000000000000000000000000007aa8d82e300",
          "blockHash": "0xdf4d5b8fa6e5ba6764d3703958c0479c49306c413a9d437670417b45e59e634d",
          "blockNumber": "0x557068",
          "blockTimestamp": "0x689164ee",
          "transactionHash": "0x6d20dc01e565d50d9123399497c6fda5a862934f01c93d2922a933c9538fd51f",
          "transactionIndex": "0x0",
          "logIndex": "0x3",
          "removed": false
        }
      ],
      "logsBloom": "0x00000000000400400000000000000004000000000000000000000000000000000000000000000000000000000000000000000000008000000004000000000000000000000000040000000008000000000000000000000000000000000000080000040000000000000000000000000000000000000000000000000030000000000000010000000000000004000000000000000000000000000000000000000000000000000000100000000000000000000000000000000000000000000000000000000002008000000000000002000000000000000000000000000000000000000000000000000000000000000000000000000000000000000100000000000000",
      "type": "0x2",
      "transactionHash": "0x6d20dc01e565d50d9123399497c6fda5a862934f01c93d2922a933c9538fd51f",
      "transactionIndex": "0x0",
      "blockHash": "0xdf4d5b8fa6e5ba6764d3703958c0479c49306c413a9d437670417b45e59e634d",
      "blockNumber": "0x557068",
      "gasUsed": "0x256a2",
      "effectiveGasPrice": "0x17d7840",
      "from": "0x94c1405e849c1e8c78066451dfad20e211ff3141",
      "to": "0x1f3a193139201b910088e4e984bc48c506845cc1",
      "contractAddress": null,
      "l1BatchNumber": null,
      "l1BatchTxIndex": null,
      "l2ToL1Logs": []
    }
  ],
  "libraries": [],
  "pending": [],
  "returns": {},
  "timestamp": 1754359024881,
  "chain": 300,
  "commit": "3f67df2"
}