{
  "transactions": [
    {
      "hash": "0xbebd77d48c49ace6ea1d7593f2aa2b450855afe39b73e2c6fcca85068fe0d097",
      "transactionType": "CALL",
      "contractName": null,
      "contractAddress": "0x70cb4f2248997bd23dccc4ed74f71b783cf35f23",
      "function": "applyChainUpdates((uint64,bool,bytes,bytes,(bool,uint128,uint128),(bool,uint128,uint128))[])",
      "arguments": [
        "[(16015286601757825753, true, 0x0000000000000000000000009ba0d5bab573f405ef2c23839922e9b27c70b270, 0x000000000000000000000000df08e8e9d2e2715c3e33962730dc9654479f041f, (false, 0, 0), (false, 0, 0))]"
      ],
      "transaction": {
        "from": "0x94c1405e849c1e8c78066451dfad20e211ff3141",
        "to": "0x70cb4f2248997bd23dccc4ed74f71b783cf35f23",
        "gas": "0x77bae",
        "value": "0x0",
        "input": "0xdb6327dc000000000000000000000000000000000000000000000000000000000000002000000000000000000000000000000000000000000000000000000000000000010000000000000000000000000000000000000000000000000000000000000020000000000000000000000000000000000000000000000000de41ba4fc9d91ad900000000000000000000000000000000000000000000000000000000000000010000000000000000000000000000000000000000000000000000000000000140000000000000000000000000000000000000000000000000000000000000018000000000000000000000000000000000000000000000000000000000000000000000000000000000000000000000000000000000000000000000000000000000000000000000000000000000000000000000000000000000000000000000000000000000000000000000000000000000000000000000000000000000000000000000000000000000000000000000000000000000000000000000000000000000000000000000000000000000000000000000000000000000000000000000000000000000000000000000000000000000000000000000000000000000000000200000000000000000000000009ba0d5bab573f405ef2c23839922e9b27c70b2700000000000000000000000000000000000000000000000000000000000000020000000000000000000000000df08e8e9d2e2715c3e33962730dc9654479f041f",
        "nonce": "0x1f",
        "chainId": "0x12c"
      },
      "additionalContracts": [],
      "isFixedGasLimit": false
    }
  ],
  "receipts": [
    {
      "status": "0x1",
      "cumulativeGasUsed": "0x0",
      "logs": [
        {
          "address": "0x000000000000000000000000000000000000800a",
          "topics": [
            "0xddf252ad1be2c89b69c2b068fc378daa952ba7f163c4a11628f55a4df523b3ef",
            "0x00000000000000000000000094c1405e849c1e8c78066451dfad20e211ff3141",
            "0x0000000000000000000000000000000000000000000000000000000000008001"
          ],
          "data": "0x0000000000000000000000000000000000000000000000000000164d2ba472ae",
          "blockHash": "0x023cb0830b2d9eea99ea7e7f0f1abeb0ab0b8ce0f89562963494f1ccd4c6225f",
          "blockNumber": "0x5587b0",
          "blockTimestamp": "0x6892b73b",
          "transactionHash": "0xbebd77d48c49ace6ea1d7593f2aa2b450855afe39b73e2c6fcca85068fe0d097",
          "transactionIndex": "0x0",
          "logIndex": "0x0",
          "removed": false
        },
        {
          "address": "0x000000000000000000000000000000000000800a",
          "topics": [
            "0xddf252ad1be2c89b69c2b068fc378daa952ba7f163c4a11628f55a4df523b3ef",
            "0x0000000000000000000000000000000000000000000000000000000000008001",
            "0x00000000000000000000000094c1405e849c1e8c78066451dfad20e211ff3141"
          ],
          "data": "0x00000000000000000000000000000000000000000000000000000b2695d5f72e",
          "blockHash": "0x023cb0830b2d9eea99ea7e7f0f1abeb0ab0b8ce0f89562963494f1ccd4c6225f",
          "blockNumber": "0x5587b0",
          "blockTimestamp": "0x6892b73b",
          "transactionHash": "0xbebd77d48c49ace6ea1d7593f2aa2b450855afe39b73e2c6fcca85068fe0d097",
          "transactionIndex": "0x0",
          "logIndex": "0x1",
          "removed": false
        },
        {
          "address": "0x70cb4f2248997bd23dccc4ed74f71b783cf35f23",
          "topics": [
            "0x8d340f17e19058004c20453540862a9c62778504476f6756755cb33bcd6c38c2"
          ],
          "data": "0x000000000000000000000000000000000000000000000000de41ba4fc9d91ad900000000000000000000000000000000000000000000000000000000000001000000000000000000000000000000000000000000000000000000000000000000000000000000000000000000000000000000000000000000000000000000000000000000000000000000000000000000000000000000000000000000000000000000000000000000000000000000000000000000000000000000000000000000000000000000000000000000000000000000000000000000000000000000000000000000000000000000000000000000000000000000000000000000000000000000000000000000000000000000000000000000000000000000000000000020000000000000000000000000df08e8e9d2e2715c3e33962730dc9654479f041f",
          "blockHash": "0x023cb0830b2d9eea99ea7e7f0f1abeb0ab0b8ce0f89562963494f1ccd4c6225f",
          "blockNumber": "0x5587b0",
          "blockTimestamp": "0x6892b73b",
          "transactionHash": "0xbebd77d48c49ace6ea1d7593f2aa2b450855afe39b73e2c6fcca85068fe0d097",
          "transactionIndex": "0x0",
          "logIndex": "0x2",
          "removed": false
        },
        {
          "address": "0x000000000000000000000000000000000000800a",
          "topics": [
            "0xddf252ad1be2c89b69c2b068fc378daa952ba7f163c4a11628f55a4df523b3ef",
            "0x0000000000000000000000000000000000000000000000000000000000008001",
            "0x00000000000000000000000094c1405e849c1e8c78066451dfad20e211ff3141"
          ],
          "data": "0x000000000000000000000000000000000000000000000000000007aa8d82e300",
          "blockHash": "0x023cb0830b2d9eea99ea7e7f0f1abeb0ab0b8ce0f89562963494f1ccd4c6225f",
          "blockNumber": "0x5587b0",
          "blockTimestamp": "0x6892b73b",
          "transactionHash": "0xbebd77d48c49ace6ea1d7593f2aa2b450855afe39b73e2c6fcca85068fe0d097",
          "transactionIndex": "0x0",
          "logIndex": "0x3",
          "removed": false
        }
      ],
      "logsBloom": "0x00100000000400400000000000000000000000000000000000000000000000000000000000000000000000000000000000000000000000000004000000000000000000000000040000000008000000000000000000000000000000000000080000000000000000000000000000000004000000000000000000000030000000000000010000000000000004000000000000000000000000000000000000000000000000000000100000000000000000000000000000000000000000000000000000000002008000000000000002000000040000000000000000000000000000000000000000000000000000000000000000000000000000000100000000000000",
      "type": "0x2",
      "transactionHash": "0xbebd77d48c49ace6ea1d7593f2aa2b450855afe39b73e2c6fcca85068fe0d097",
      "transactionIndex": "0x0",
      "blockHash": "0x023cb0830b2d9eea99ea7e7f0f1abeb0ab0b8ce0f89562963494f1ccd4c6225f",
      "blockNumber": "0x5587b0",
      "gasUsed": "0x256a2",
      "effectiveGasPrice": "0x17d7840",
      "from": "0x94c1405e849c1e8c78066451dfad20e211ff3141",
      "to": "0x70cb4f2248997bd23dccc4ed74f71b783cf35f23",
      "contractAddress": null,
      "l1BatchNumber": null,
      "l1BatchTxIndex": null,
      "l2ToL1Logs": []
    }
  ],
  "libraries": [],
  "pending": [],
  "returns": {},
  "timestamp": 1754445630317,
  "chain": 300,
  "commit": "3f67df2"
}