{
  "transactions": [
    {
      "hash": "0x9ea9b2ab961fd027c7b580efe5db87a774a52e312feefb3d7dc60e48c334ceb2",
      "transactionType": "CALL",
      "contractName": null,
      "contractAddress": "0x7a96bb1c9c9ab378fcc111cc1808d82841cf83fc",
      "function": "applyChainUpdates((uint64,bool,bytes,bytes,(bool,uint128,uint128),(bool,uint128,uint128))[])",
      "arguments": [
        "[(6898391096552792247, true, 0x000000000000000000000000c7b3b69a67259c2b1e75c5bb9cfae3c6d9cc3798, 0x000000000000000000000000c6c2a82cde80f331270197b35744373adc3bdd79, (false, 0, 0), (false, 0, 0))]"
      ],
      "transaction": {
        "from": "0x94c1405e849c1e8c78066451dfad20e211ff3141",
        "to": "0x7a96bb1c9c9ab378fcc111cc1808d82841cf83fc",
        "gas": "0x525dc",
        "value": "0x0",
        "input": "0xdb6327dc0000000000000000000000000000000000000000000000000000000000000020000000000000000000000000000000000000000000000000000000000000000100000000000000000000000000000000000000000000000000000000000000200000000000000000000000000000000000000000000000005fbc02272fbf20b70000000000000000000000000000000000000000000000000000000000000001000000000000000000000000000000000000000000000000000000000000014000000000000000000000000000000000000000000000000000000000000001800000000000000000000000000000000000000000000000000000000000000000000000000000000000000000000000000000000000000000000000000000000000000000000000000000000000000000000000000000000000000000000000000000000000000000000000000000000000000000000000000000000000000000000000000000000000000000000000000000000000000000000000000000000000000000000000000000000000000000000000000000000000000000000000000000000000000000000000000000000000000000000000000000000000000020000000000000000000000000c7b3b69a67259c2b1e75c5bb9cfae3c6d9cc37980000000000000000000000000000000000000000000000000000000000000020000000000000000000000000c6c2a82cde80f331270197b35744373adc3bdd79",
        "nonce": "0x40",
        "chainId": "0xaa36a7"
      },
      "additionalContracts": [],
      "isFixedGasLimit": false
    }
  ],
  "receipts": [
    {
      "status": "0x1",
      "cumulativeGasUsed": "0xe65b04",
      "logs": [
        {
          "address": "0x7a96bb1c9c9ab378fcc111cc1808d82841cf83fc",
          "topics": [
            "0x8d340f17e19058004c20453540862a9c62778504476f6756755cb33bcd6c38c2"
          ],
          "data": "0x0000000000000000000000000000000000000000000000005fbc02272fbf20b700000000000000000000000000000000000000000000000000000000000001000000000000000000000000000000000000000000000000000000000000000000000000000000000000000000000000000000000000000000000000000000000000000000000000000000000000000000000000000000000000000000000000000000000000000000000000000000000000000000000000000000000000000000000000000000000000000000000000000000000000000000000000000000000000000000000000000000000000000000000000000000000000000000000000000000000000000000000000000000000000000000000000000000000000000020000000000000000000000000c6c2a82cde80f331270197b35744373adc3bdd79",
          "blockHash": "0x6ef47aebcdff8a421b1b168c8464a3e5c0a31f692be18783f46ff2d3d57efabe",
          "blockNumber": "0x88243a",
          "blockTimestamp": "0x6892b93c",
          "transactionHash": "0x9ea9b2ab961fd027c7b580efe5db87a774a52e312feefb3d7dc60e48c334ceb2",
          "transactionIndex": "0x87",
          "logIndex": "0xf3",
          "removed": false
        }
      ],
      "logsBloom": "0x00000000000000400000000000000000000000000000000000000000000000000000000000000000000000000000000000000000000000000004000000000000000000000000000000000000000000000000000000080000000000000000000000000000000000000000000000000000000000000000000000000000000000000000000000000000000000000000000000000000000000000000000000000000000000000000000000000000000000000000000000000000000000000000000000000000000000008000000000000000000000000000000000000000000000000000000000000000000000000000000200000000000000000100000000000000",
      "type": "0x2",
      "transactionHash": "0x9ea9b2ab961fd027c7b580efe5db87a774a52e312feefb3d7dc60e48c334ceb2",
      "transactionIndex": "0x87",
      "blockHash": "0x6ef47aebcdff8a421b1b168c8464a3e5c0a31f692be18783f46ff2d3d57efabe",
      "blockNumber": "0x88243a",
      "gasUsed": "0x3ba1c",
      "effectiveGasPrice": "0xf4285",
      "from": "0x94c1405e849c1e8c78066451dfad20e211ff3141",
      "to": "0x7a96bb1c9c9ab378fcc111cc1808d82841cf83fc",
      "contractAddress": null
    }
  ],
  "libraries": [],
  "pending": [],
  "returns": {},
  "timestamp": 1754446140560,
  "chain": 11155111,
  "commit": "3f67df2"
}