{
  "transactions": [
    {
      "hash": "0xadb294fbdc4d6300cea72691d1ce60932b1f612f4d0e9eb11e3627bb766a5c79",
      "transactionType": "CALL",
      "contractName": null,
      "contractAddress": "0x9ba0d5bab573f405ef2c23839922e9b27c70b270",
      "function": "applyChainUpdates((uint64,bool,bytes,bytes,(bool,uint128,uint128),(bool,uint128,uint128))[])",
      "arguments": [
        "[(6898391096552792247, true, 0x00000000000000000000000070cb4f2248997bd23dccc4ed74f71b783cf35f23, 0x0000000000000000000000006c1a0ec6f5e10a1ec68856daa2f3561bcdcefe60, (false, 0, 0), (false, 0, 0))]"
      ],
      "transaction": {
        "from": "0x94c1405e849c1e8c78066451dfad20e211ff3141",
        "to": "0x9ba0d5bab573f405ef2c23839922e9b27c70b270",
        "gas": "0x525dc",
        "value": "0x0",
        "input": "0xdb6327dc0000000000000000000000000000000000000000000000000000000000000020000000000000000000000000000000000000000000000000000000000000000100000000000000000000000000000000000000000000000000000000000000200000000000000000000000000000000000000000000000005fbc02272fbf20b7000000000000000000000000000000000000000000000000000000000000000100000000000000000000000000000000000000000000000000000000000001400000000000000000000000000000000000000000000000000000000000000180000000000000000000000000000000000000000000000000000000000000000000000000000000000000000000000000000000000000000000000000000000000000000000000000000000000000000000000000000000000000000000000000000000000000000000000000000000000000000000000000000000000000000000000000000000000000000000000000000000000000000000000000000000000000000000000000000000000000000000000000000000000000000000000000000000000000000000000000000000000000000000000000000000000000002000000000000000000000000070cb4f2248997bd23dccc4ed74f71b783cf35f2300000000000000000000000000000000000000000000000000000000000000200000000000000000000000006c1a0ec6f5e10a1ec68856daa2f3561bcdcefe60",
        "nonce": "0x36",
        "chainId": "0xaa36a7"
      },
      "additionalContracts": [],
      "isFixedGasLimit": false
    }
  ],
  "receipts": [
    {
      "status": "0x1",
      "cumulativeGasUsed": "0x8444bc",
      "logs": [
        {
          "address": "0x9ba0d5bab573f405ef2c23839922e9b27c70b270",
          "topics": [
            "0x8d340f17e19058004c20453540862a9c62778504476f6756755cb33bcd6c38c2"
          ],
          "data": "0x0000000000000000000000000000000000000000000000005fbc02272fbf20b7000000000000000000000000000000000000000000000000000000000000010000000000000000000000000000000000000000000000000000000000000000000000000000000000000000000000000000000000000000000000000000000000000000000000000000000000000000000000000000000000000000000000000000000000000000000000000000000000000000000000000000000000000000000000000000000000000000000000000000000000000000000000000000000000000000000000000000000000000000000000000000000000000000000000000000000000000000000000000000000000000000000000000000000000000000200000000000000000000000006c1a0ec6f5e10a1ec68856daa2f3561bcdcefe60",
          "blockHash": "0x628fd0cf1eb0c4232e1486960833706f6226cc329f75acf4000bf54477275b48",
          "blockNumber": "0x88240c",
          "blockTimestamp": "0x6892b714",
          "transactionHash": "0xadb294fbdc4d6300cea72691d1ce60932b1f612f4d0e9eb11e3627bb766a5c79",
          "transactionIndex": "0x34",
          "logIndex": "0x59",
          "removed": false
        }
      ],
      "logsBloom": "0x00000000000000400000000000000000000000000000000000000000000000000000000000000000000000000000000000000000000000000004000000000000000000000000000000000000000000000000000000000000000000000000000000000000000000000000000000000000000000000000000000000000000000000000000000000000000000000000000000000000000000000000000000000000000000000000000000000000000000000000000000000000000000000000000000000000000000000000008000000000000000000000000010000000040000000000000000000000000000000000000000000000000000000100000000000000",
      "type": "0x2",
      "transactionHash": "0xadb294fbdc4d6300cea72691d1ce60932b1f612f4d0e9eb11e3627bb766a5c79",
      "transactionIndex": "0x34",
      "blockHash": "0x628fd0cf1eb0c4232e1486960833706f6226cc329f75acf4000bf54477275b48",
      "blockNumber": "0x88240c",
      "gasUsed": "0x3ba1c",
      "effectiveGasPrice": "0x16e3d0",
      "from": "0x94c1405e849c1e8c78066451dfad20e211ff3141",
      "to": "0x9ba0d5bab573f405ef2c23839922e9b27c70b270",
      "contractAddress": null
    }
  ],
  "libraries": [],
  "pending": [],
  "returns": {},
  "timestamp": 1754445590355,
  "chain": 11155111,
  "commit": "3f67df2"
}