{
  "transactions": [
    {
      "hash": null,
      "transactionType": "CALL",
      "contractName": null,
      "contractAddress": "0xae6cfb299026f51fb0d93b6a61c1797478241965",
      "function": "applyChainUpdates((uint64,bool,bytes,bytes,(bool,uint128,uint128),(bool,uint128,uint128))[])",
      "arguments": [
        "[(6898391096552792247, true, 0x000000000000000000000000d38a2aa6932622a269bfcbee2b27ba36fdb65c4e, 0x00000000000000000000000032ae8c818cc1f0a72515113ea19fc448b21f6ba2, (false, 0, 0), (false, 0, 0))]"
      ],
      "transaction": {
        "from": "0x94c1405e849c1e8c78066451dfad20e211ff3141",
        "to": "0xae6cfb299026f51fb0d93b6a61c1797478241965",
        "gas": "0x525dc",
        "value": "0x0",
        "input": "0xdb6327dc0000000000000000000000000000000000000000000000000000000000000020000000000000000000000000000000000000000000000000000000000000000100000000000000000000000000000000000000000000000000000000000000200000000000000000000000000000000000000000000000005fbc02272fbf20b70000000000000000000000000000000000000000000000000000000000000001000000000000000000000000000000000000000000000000000000000000014000000000000000000000000000000000000000000000000000000000000001800000000000000000000000000000000000000000000000000000000000000000000000000000000000000000000000000000000000000000000000000000000000000000000000000000000000000000000000000000000000000000000000000000000000000000000000000000000000000000000000000000000000000000000000000000000000000000000000000000000000000000000000000000000000000000000000000000000000000000000000000000000000000000000000000000000000000000000000000000000000000000000000000000000000000020000000000000000000000000d38a2aa6932622a269bfcbee2b27ba36fdb65c4e000000000000000000000000000000000000000000000000000000000000002000000000000000000000000032ae8c818cc1f0a72515113ea19fc448b21f6ba2",
        "nonce": "0x2c",
        "chainId": "0xaa36a7"
      },
      "additionalContracts": [],
      "isFixedGasLimit": false
    }
  ],
  "receipts": [],
  "libraries": [],
  "pending": [],
  "returns": {},
  "timestamp": 1754359654625,
  "chain": 11155111,
  "commit": "3f67df2"
}