{
  "transactions": [
    {
      "hash": "0x4f7c3253bab0fbba957a41c3b502c9966be4d323b88be8be93ef22a338565bbd",
      "transactionType": "CALL",
      "contractName": null,
      "contractAddress": "0x426fdc2b5f70d4db53e9e3ebb871493da48568e4",
      "function": "applyChainUpdates((uint64,bool,bytes,bytes,(bool,uint128,uint128),(bool,uint128,uint128))[])",
      "arguments": [
        "[(6898391096552792247, true, 0x000000000000000000000000482bbb4eba06cd057a8cc85f46bc4f3a43cf42bc, 0x000000000000000000000000e21e964c0e17ca7331f161fc42f2de43a7c5e07d, (false, 0, 0), (false, 0, 0))]"
      ],
      "transaction": {
        "from": "0x94c1405e849c1e8c78066451dfad20e211ff3141",
        "to": "0x426fdc2b5f70d4db53e9e3ebb871493da48568e4",
        "gas": "0x525dc",
        "value": "0x0",
        "input": "0xdb6327dc0000000000000000000000000000000000000000000000000000000000000020000000000000000000000000000000000000000000000000000000000000000100000000000000000000000000000000000000000000000000000000000000200000000000000000000000000000000000000000000000005fbc02272fbf20b70000000000000000000000000000000000000000000000000000000000000001000000000000000000000000000000000000000000000000000000000000014000000000000000000000000000000000000000000000000000000000000001800000000000000000000000000000000000000000000000000000000000000000000000000000000000000000000000000000000000000000000000000000000000000000000000000000000000000000000000000000000000000000000000000000000000000000000000000000000000000000000000000000000000000000000000000000000000000000000000000000000000000000000000000000000000000000000000000000000000000000000000000000000000000000000000000000000000000000000000000000000000000000000000000000000000000020000000000000000000000000482bbb4eba06cd057a8cc85f46bc4f3a43cf42bc0000000000000000000000000000000000000000000000000000000000000020000000000000000000000000e21e964c0e17ca7331f161fc42f2de43a7c5e07d",
        "nonce": "0x4a",
        "chainId": "0xaa36a7"
      },
      "additionalContracts": [],
      "isFixedGasLimit": false
    }
  ],
  "receipts": [
    {
      "status": "0x1",
      "cumulativeGasUsed": "0x5ccdf1",
      "logs": [
        {
          "address": "0x426fdc2b5f70d4db53e9e3ebb871493da48568e4",
          "topics": [
            "0x8d340f17e19058004c20453540862a9c62778504476f6756755cb33bcd6c38c2"
          ],
          "data": "0x0000000000000000000000000000000000000000000000005fbc02272fbf20b700000000000000000000000000000000000000000000000000000000000001000000000000000000000000000000000000000000000000000000000000000000000000000000000000000000000000000000000000000000000000000000000000000000000000000000000000000000000000000000000000000000000000000000000000000000000000000000000000000000000000000000000000000000000000000000000000000000000000000000000000000000000000000000000000000000000000000000000000000000000000000000000000000000000000000000000000000000000000000000000000000000000000000000000000000020000000000000000000000000e21e964c0e17ca7331f161fc42f2de43a7c5e07d",
          "blockHash": "0x73c0cef015fe8935914c246443d72d8d0f3a38a64baeb7ff1161b63c0b332a74",
          "blockNumber": "0x882468",
          "blockTimestamp": "0x6892bb70",
          "transactionHash": "0x4f7c3253bab0fbba957a41c3b502c9966be4d323b88be8be93ef22a338565bbd",
          "transactionIndex": "0x44",
          "logIndex": "0x72",
          "removed": false
        }
      ],
      "logsBloom": "0x00000000000000400000000000000000000000000000000000000000000000000000000000000000000000000000000000000000000000000004000000000000000000000000000000000000000000000000000000000000000000000000000000000000000000000000000000000000000000000000000000000020000000000000000000000000000000000000000000000000000000000000000000000000000000000000000000000000000000000000000000000000000000000000000000000000000000000000000000000000000800000000000000000000000001000000000000000000000000000000000000000000000000000100000000000000",
      "type": "0x2",
      "transactionHash": "0x4f7c3253bab0fbba957a41c3b502c9966be4d323b88be8be93ef22a338565bbd",
      "transactionIndex": "0x44",
      "blockHash": "0x73c0cef015fe8935914c246443d72d8d0f3a38a64baeb7ff1161b63c0b332a74",
      "blockNumber": "0x882468",
      "gasUsed": "0x3ba1c",
      "effectiveGasPrice": "0x124fda",
      "from": "0x94c1405e849c1e8c78066451dfad20e211ff3141",
      "to": "0x426fdc2b5f70d4db53e9e3ebb871493da48568e4",
      "contractAddress": null
    }
  ],
  "libraries": [],
  "pending": [],
  "returns": {},
  "timestamp": 1754446705545,
  "chain": 11155111,
  "commit": "3f67df2"
}