{
  "transactions": [
    {
      "hash": "0x174e33bf4963ee9bc2f5412c19ce8e4b39eb8a474577cdaec2f31097b4cca6c9",
      "transactionType": "CALL",
      "contractName": null,
      "contractAddress": "0x546e8004215770e77dab3f95a948a58421307ada",
      "function": "applyChainUpdates((uint64,bool,bytes,bytes,(bool,uint128,uint128),(bool,uint128,uint128))[])",
      "arguments": [
        "[(6898391096552792247, true, 0x000000000000000000000000b1eb848da7ac94b59429fb36edcadc321438be7f, 0x0000000000000000000000007506ab115553cac8da132c6f1afec5186882b794, (false, 0, 0), (false, 0, 0))]"
      ],
      "transaction": {
        "from": "0x94c1405e849c1e8c78066451dfad20e211ff3141",
        "to": "0x546e8004215770e77dab3f95a948a58421307ada",
        "gas": "0x525dc",
        "value": "0x0",
        "input": "0xdb6327dc0000000000000000000000000000000000000000000000000000000000000020000000000000000000000000000000000000000000000000000000000000000100000000000000000000000000000000000000000000000000000000000000200000000000000000000000000000000000000000000000005fbc02272fbf20b70000000000000000000000000000000000000000000000000000000000000001000000000000000000000000000000000000000000000000000000000000014000000000000000000000000000000000000000000000000000000000000001800000000000000000000000000000000000000000000000000000000000000000000000000000000000000000000000000000000000000000000000000000000000000000000000000000000000000000000000000000000000000000000000000000000000000000000000000000000000000000000000000000000000000000000000000000000000000000000000000000000000000000000000000000000000000000000000000000000000000000000000000000000000000000000000000000000000000000000000000000000000000000000000000000000000000020000000000000000000000000b1eb848da7ac94b59429fb36edcadc321438be7f00000000000000000000000000000000000000000000000000000000000000200000000000000000000000007506ab115553cac8da132c6f1afec5186882b794",
        "nonce": "0x1b",
        "chainId": "0xaa36a7"
      },
      "additionalContracts": [],
      "isFixedGasLimit": false
    }
  ],
  "receipts": [
    {
      "status": "0x1",
      "cumulativeGasUsed": "0x12838f2",
      "logs": [
        {
          "address": "0x546e8004215770e77dab3f95a948a58421307ada",
          "topics": [
            "0x8d340f17e19058004c20453540862a9c62778504476f6756755cb33bcd6c38c2"
          ],
          "data": "0x0000000000000000000000000000000000000000000000005fbc02272fbf20b7000000000000000000000000000000000000000000000000000000000000010000000000000000000000000000000000000000000000000000000000000000000000000000000000000000000000000000000000000000000000000000000000000000000000000000000000000000000000000000000000000000000000000000000000000000000000000000000000000000000000000000000000000000000000000000000000000000000000000000000000000000000000000000000000000000000000000000000000000000000000000000000000000000000000000000000000000000000000000000000000000000000000000000000000000000200000000000000000000000007506ab115553cac8da132c6f1afec5186882b794",
          "blockHash": "0x3b525aa2d748bb6a18420dd8e9600c911cadfedef961b077c850ffaca457090a",
          "blockNumber": "0x87f45f",
          "blockTimestamp": "0x68907888",
          "transactionHash": "0x174e33bf4963ee9bc2f5412c19ce8e4b39eb8a474577cdaec2f31097b4cca6c9",
          "transactionIndex": "0x96",
          "logIndex": "0x148",
          "removed": false
        }
      ],
      "logsBloom": "0x00000000000000400000000000000000000000040000000000000000000000000000000000000000000000000000000000000000000000000004000000000000000000000000000000000000000000000000000000000000000000000000000000000000000000000000000000000000000000000000000000000000000000000000000000000000000000000000000000000800000000000000000000000000000000000000000000000000000000000000000100000000000000000000000000000000000000000000000000000000000000000000000000000000000000000000000000000000000000000000000000000000000000000100000000000000",
      "type": "0x2",
      "transactionHash": "0x174e33bf4963ee9bc2f5412c19ce8e4b39eb8a474577cdaec2f31097b4cca6c9",
      "transactionIndex": "0x96",
      "blockHash": "0x3b525aa2d748bb6a18420dd8e9600c911cadfedef961b077c850ffaca457090a",
      "blockNumber": "0x87f45f",
      "gasUsed": "0x3ba1c",
      "effectiveGasPrice": "0x5d9ebf6",
      "from": "0x94c1405e849c1e8c78066451dfad20e211ff3141",
      "to": "0x546e8004215770e77dab3f95a948a58421307ada",
      "contractAddress": null
    }
  ],
  "libraries": [],
  "pending": [],
  "returns": {},
  "timestamp": 1754298504813,
  "chain": 11155111,
  "commit": "3f67df2"
}