{
  "transactions": [
    {
      "hash": null,
      "transactionType": "CALL",
      "contractName": null,
      "contractAddress": "0x94f5b2ea2ba2a19debb57b33af206c14c2e8a938",
      "function": "applyChainUpdates((uint64,bool,bytes,bytes,(bool,uint128,uint128),(bool,uint128,uint128))[])",
      "arguments": [
        "[(6898391096552792247, true, 0x0000000000000000000000001f3a193139201b910088e4e984bc48c506845cc1, 0x00000000000000000000000095eecb7ba69c60da991309644d77bafb5124cd86, (false, 0, 0), (false, 0, 0))]"
      ],
      "transaction": {
        "from": "0x94c1405e849c1e8c78066451dfad20e211ff3141",
        "to": "0x94f5b2ea2ba2a19debb57b33af206c14c2e8a938",
        "gas": "0x525cc",
        "value": "0x0",
        "input": "0xdb6327dc0000000000000000000000000000000000000000000000000000000000000020000000000000000000000000000000000000000000000000000000000000000100000000000000000000000000000000000000000000000000000000000000200000000000000000000000000000000000000000000000005fbc02272fbf20b700000000000000000000000000000000000000000000000000000000000000010000000000000000000000000000000000000000000000000000000000000140000000000000000000000000000000000000000000000000000000000000018000000000000000000000000000000000000000000000000000000000000000000000000000000000000000000000000000000000000000000000000000000000000000000000000000000000000000000000000000000000000000000000000000000000000000000000000000000000000000000000000000000000000000000000000000000000000000000000000000000000000000000000000000000000000000000000000000000000000000000000000000000000000000000000000000000000000000000000000000000000000000000000000000000000000000200000000000000000000000001f3a193139201b910088e4e984bc48c506845cc1000000000000000000000000000000000000000000000000000000000000002000000000000000000000000095eecb7ba69c60da991309644d77bafb5124cd86",
        "nonce": "0x23",
        "chainId": "0xaa36a7"
      },
      "additionalContracts": [],
      "isFixedGasLimit": false
    }
  ],
  "receipts": [],
  "libraries": [],
  "pending": [],
  "returns": {},
  "timestamp": 1754358973042,
  "chain": 11155111,
  "commit": "3f67df2"
}