{
  "transactions": [
    {
      "hash": "0xe8f6a2438963c522517e73b4f8939712d02cf5b1d735436148694bcb7ef646aa",
      "transactionType": "CALL",
      "contractName": null,
      "contractAddress": "0x779877a7b0d9e8603169ddbd7836e478b4624789",
      "function": "approve(address,uint256)",
      "arguments": [
        "0x0BF3dE8c5D3e8A2B34D2BEeB17ABfCeBaf363A59",
        "17650037932960113"
      ],
      "transaction": {
        "from": "0x94c1405e849c1e8c78066451dfad20e211ff3141",
        "to": "0x779877a7b0d9e8603169ddbd7836e478b4624789",
        "gas": "0x1081f",
        "value": "0x0",
        "input": "0x095ea7b30000000000000000000000000bf3de8c5d3e8a2b34d2beeb17abfcebaf363a59000000000000000000000000000000000000000000000000003eb49db1442971",
        "nonce": "0x4c",
        "chainId": "0xaa36a7"
      },
      "additionalContracts": [],
      "isFixedGasLimit": false
    },
    {
      "hash": "0xdb54b42c014eddea649d115c25eebe64fffc60b99755af156edd588b07af0fbe",
      "transactionType": "CALL",
      "contractName": null,
      "contractAddress": "0x1c48f5cf649d3e7d601511424471dd98226206d9",
      "function": "approve(address,uint256)",
      "arguments": [
        "0x0BF3dE8c5D3e8A2B34D2BEeB17ABfCeBaf363A59",
        "100000"
      ],
      "transaction": {
        "from": "0x94c1405e849c1e8c78066451dfad20e211ff3141",
        "to": "0x1c48f5cf649d3e7d601511424471dd98226206d9",
        "gas": "0x10c48",
        "value": "0x0",
        "input": "0x095ea7b30000000000000000000000000bf3de8c5d3e8a2b34d2beeb17abfcebaf363a5900000000000000000000000000000000000000000000000000000000000186a0",
        "nonce": "0x4d",
        "chainId": "0xaa36a7"
      },
      "additionalContracts": [],
      "isFixedGasLimit": false
    },
    {
      "hash": "0x30a5e481ed27a8f18edf22ca55e1dc03455fe31dc95cf6f6b2043dbd3c41d460",
      "transactionType": "CALL",
      "contractName": null,
      "contractAddress": "0x0bf3de8c5d3e8a2b34d2beeb17abfcebaf363a59",
      "function": "ccipSend(uint64,(bytes,bytes,(address,uint256)[],address,bytes))",
      "arguments": [
        "6898391096552792247",
        "(0x00000000000000000000000094c1405e849c1e8c78066451dfad20e211ff3141, 0x, [(0x1C48f5Cf649d3E7d601511424471dd98226206d9, 100000)], 0x779877A7B0D9E8603169DdbD7836e478b4624789, 0x97a657c90000000000000000000000000000000000000000000000000000000000030d40)"
      ],
      "transaction": {
        "from": "0x94c1405e849c1e8c78066451dfad20e211ff3141",
        "to": "0x0bf3de8c5d3e8a2b34d2beeb17abfcebaf363a59",
        "gas": "0x58efb",
        "value": "0x0",
        "input": "0x96f4e9f90000000000000000000000000000000000000000000000005fbc02272fbf20b7000000000000000000000000000000000000000000000000000000000000004000000000000000000000000000000000000000000000000000000000000000a000000000000000000000000000000000000000000000000000000000000000e00000000000000000000000000000000000000000000000000000000000000100000000000000000000000000779877a7b0d9e8603169ddbd7836e478b46247890000000000000000000000000000000000000000000000000000000000000160000000000000000000000000000000000000000000000000000000000000002000000000000000000000000094c1405e849c1e8c78066451dfad20e211ff3141000000000000000000000000000000000000000000000000000000000000000000000000000000000000000000000000000000000000000000000000000000010000000000000000000000001c48f5cf649d3e7d601511424471dd98226206d900000000000000000000000000000000000000000000000000000000000186a0000000000000000000000000000000000000000000000000000000000000002497a657c90000000000000000000000000000000000000000000000000000000000030d4000000000000000000000000000000000000000000000000000000000",
        "nonce": "0x4e",
        "chainId": "0xaa36a7"
      },
      "additionalContracts": [],
      "isFixedGasLimit": false
    }
  ],
  "receipts": [
    {
      "status": "0x1",
      "cumulativeGasUsed": "0xa0ad9c",
      "logs": [
        {
          "address": "0x779877a7b0d9e8603169ddbd7836e478b4624789",
          "topics": [
            "0x8c5be1e5ebec7d5bd14f71427d1e84f3dd0314c0f7b2291e5b200ac8c7c3b925",
            "0x00000000000000000000000094c1405e849c1e8c78066451dfad20e211ff3141",
            "0x0000000000000000000000000bf3de8c5d3e8a2b34d2beeb17abfcebaf363a59"
          ],
          "data": "0x000000000000000000000000000000000000000000000000003eb49db1442971",
          "blockHash": "0x9418b7aae6327b4c78ca126dc480eaacba8bc3a50724c345d797ba997f89f307",
          "blockNumber": "0x88246d",
          "blockTimestamp": "0x6892bbac",
          "transactionHash": "0xe8f6a2438963c522517e73b4f8939712d02cf5b1d735436148694bcb7ef646aa",
          "transactionIndex": "0x46",
          "logIndex": "0x8b",
          "removed": false
        }
      ],
      "logsBloom": "0x00000004000040000000000000000000000000000000000000000000000000000000000000000000000000000000000000000000000000000000000000200000000000000000000000000000000000000000000000000000000000000000000000000000000100000000000000000000000000000000000000000020000000000000010000000000000000000000800000000000000000000000000000000000020000000000080000000000000000000000000000000000000000000000000000000000000000000000000002000000000000000000000100000000000000000010000000000000000000000000000000000000000000000000000000000000",
      "type": "0x2",
      "transactionHash": "0xe8f6a2438963c522517e73b4f8939712d02cf5b1d735436148694bcb7ef646aa",
      "transactionIndex": "0x46",
      "blockHash": "0x9418b7aae6327b4c78ca126dc480eaacba8bc3a50724c345d797ba997f89f307",
      "blockNumber": "0x88246d",
      "gasUsed": "0xb499",
      "effectiveGasPrice": "0x101046",
      "from": "0x94c1405e849c1e8c78066451dfad20e211ff3141",
      "to": "0x779877a7b0d9e8603169ddbd7836e478b4624789",
      "contractAddress": null
    },
    {
      "status": "0x1",
      "cumulativeGasUsed": "0xa1650d",
      "logs": [
        {
          "address": "0x1c48f5cf649d3e7d601511424471dd98226206d9",
          "topics": [
            "0x8c5be1e5ebec7d5bd14f71427d1e84f3dd0314c0f7b2291e5b200ac8c7c3b925",
            "0x00000000000000000000000094c1405e849c1e8c78066451dfad20e211ff3141",
            "0x0000000000000000000000000bf3de8c5d3e8a2b34d2beeb17abfcebaf363a59"
          ],
          "data": "0x00000000000000000000000000000000000000000000000000000000000186a0",
          "blockHash": "0x9418b7aae6327b4c78ca126dc480eaacba8bc3a50724c345d797ba997f89f307",
          "blockNumber": "0x88246d",
          "blockTimestamp": "0x6892bbac",
          "transactionHash": "0xdb54b42c014eddea649d115c25eebe64fffc60b99755af156edd588b07af0fbe",
          "transactionIndex": "0x47",
          "logIndex": "0x8c",
          "removed": false
        }
      ],
      "logsBloom": "0x00000000000040000000000000040000000000000000000000000000000000000000000000000000000000000000000000000000000000000000000000200000000000000000000000000000000000000000000000000000000000000000000400000000000100000008000000000000000000000000000000000020000000000000010000000000000000000000000000000000000000000000000000000000020000000000080000000000000000000000000000000000000000000000000000000000000000000000000002000000000000000000000000000000000000000010000000000000000000000000000000000000000000000000000000000000",
      "type": "0x2",
      "transactionHash": "0xdb54b42c014eddea649d115c25eebe64fffc60b99755af156edd588b07af0fbe",
      "transactionIndex": "0x47",
      "blockHash": "0x9418b7aae6327b4c78ca126dc480eaacba8bc3a50724c345d797ba997f89f307",
      "blockNumber": "0x88246d",
      "gasUsed": "0xb771",
      "effectiveGasPrice": "0x101046",
      "from": "0x94c1405e849c1e8c78066451dfad20e211ff3141",
      "to": "0x1c48f5cf649d3e7d601511424471dd98226206d9",
      "contractAddress": null
    },
    {
      "status": "0x1",
      "cumulativeGasUsed": "0xa56b44",
      "logs": [
        {
          "address": "0x779877a7b0d9e8603169ddbd7836e478b4624789",
          "topics": [
            "0xddf252ad1be2c89b69c2b068fc378daa952ba7f163c4a11628f55a4df523b3ef",
            "0x00000000000000000000000094c1405e849c1e8c78066451dfad20e211ff3141",
            "0x000000000000000000000000a2865e4f36760f5fa5c8f958336120f2df0d974b"
          ],
          "data": "0x000000000000000000000000000000000000000000000000003eb49db1442971",
          "blockHash": "0x9418b7aae6327b4c78ca126dc480eaacba8bc3a50724c345d797ba997f89f307",
          "blockNumber": "0x88246d",
          "blockTimestamp": "0x6892bbac",
          "transactionHash": "0x30a5e481ed27a8f18edf22ca55e1dc03455fe31dc95cf6f6b2043dbd3c41d460",
          "transactionIndex": "0x48",
          "logIndex": "0x8d",
          "removed": false
        },
        {
          "address": "0x779877a7b0d9e8603169ddbd7836e478b4624789",
          "topics": [
            "0x8c5be1e5ebec7d5bd14f71427d1e84f3dd0314c0f7b2291e5b200ac8c7c3b925",
            "0x00000000000000000000000094c1405e849c1e8c78066451dfad20e211ff3141",
            "0x0000000000000000000000000bf3de8c5d3e8a2b34d2beeb17abfcebaf363a59"
          ],
          "data": "0x0000000000000000000000000000000000000000000000000000000000000000",
          "blockHash": "0x9418b7aae6327b4c78ca126dc480eaacba8bc3a50724c345d797ba997f89f307",
          "blockNumber": "0x88246d",
          "blockTimestamp": "0x6892bbac",
          "transactionHash": "0x30a5e481ed27a8f18edf22ca55e1dc03455fe31dc95cf6f6b2043dbd3c41d460",
          "transactionIndex": "0x48",
          "logIndex": "0x8e",
          "removed": false
        },
        {
          "address": "0x1c48f5cf649d3e7d601511424471dd98226206d9",
          "topics": [
            "0xddf252ad1be2c89b69c2b068fc378daa952ba7f163c4a11628f55a4df523b3ef",
            "0x00000000000000000000000094c1405e849c1e8c78066451dfad20e211ff3141",
            "0x000000000000000000000000426fdc2b5f70d4db53e9e3ebb871493da48568e4"
          ],
          "data": "0x00000000000000000000000000000000000000000000000000000000000186a0",
          "blockHash": "0x9418b7aae6327b4c78ca126dc480eaacba8bc3a50724c345d797ba997f89f307",
          "blockNumber": "0x88246d",
          "blockTimestamp": "0x6892bbac",
          "transactionHash": "0x30a5e481ed27a8f18edf22ca55e1dc03455fe31dc95cf6f6b2043dbd3c41d460",
          "transactionIndex": "0x48",
          "logIndex": "0x8f",
          "removed": false
        },
        {
          "address": "0x1c48f5cf649d3e7d601511424471dd98226206d9",
          "topics": [
            "0xddf252ad1be2c89b69c2b068fc378daa952ba7f163c4a11628f55a4df523b3ef",
            "0x000000000000000000000000426fdc2b5f70d4db53e9e3ebb871493da48568e4",
            "0x0000000000000000000000000000000000000000000000000000000000000000"
          ],
          "data": "0x00000000000000000000000000000000000000000000000000000000000186a0",
          "blockHash": "0x9418b7aae6327b4c78ca126dc480eaacba8bc3a50724c345d797ba997f89f307",
          "blockNumber": "0x88246d",
          "blockTimestamp": "0x6892bbac",
          "transactionHash": "0x30a5e481ed27a8f18edf22ca55e1dc03455fe31dc95cf6f6b2043dbd3c41d460",
          "transactionIndex": "0x48",
          "logIndex": "0x90",
          "removed": false
        },
        {
          "address": "0xa2865e4f36760f5fa5c8f958336120f2df0d974b",
          "topics": [
            "0xd0c3c799bf9e2639de44391e7f524d229b2b55f5b1ea94b2bf7da42f7243dddd"
          ],
          "data": "0x0000000000000000000000000000000000000000000000000000000000000020000000000000000000000000000000000000000000000000de41ba4fc9d91ad900000000000000000000000094c1405e849c1e8c78066451dfad20e211ff314100000000000000000000000094c1405e849c1e8c78066451dfad20e211ff314100000000000000000000000000000000000000000000000000000000000002c50000000000000000000000000000000000000000000000000000000000030d4000000000000000000000000000000000000000000000000000000000000000000000000000000000000000000000000000000000000000000000000000000001000000000000000000000000779877a7b0d9e8603169ddbd7836e478b4624789000000000000000000000000000000000000000000000000003eb49db144297100000000000000000000000000000000000000000000000000000000000001a000000000000000000000000000000000000000000000000000000000000001c000000000000000000000000000000000000000000000000000000000000002207f2c7fc483b38acd63c51301e8f9495b705a01ef1ff29619c0e6b02a10e643dd000000000000000000000000000000000000000000000000000000000000000000000000000000000000000000000000000000000000000000000000000000010000000000000000000000001c48f5cf649d3e7d601511424471dd98226206d900000000000000000000000000000000000000000000000000000000000186a00000000000000000000000000000000000000000000000000000000000000001000000000000000000000000000000000000000000000000000000000000002000000000000000000000000000000000000000000000000000000000000001600000000000000000000000000000000000000000000000000000000000000020000000000000000000000000000000000000000000000000000000000000008000000000000000000000000000000000000000000000000000000000000000c000000000000000000000000000000000000000000000000000000000000001000000000000000000000000000000000000000000000000000000000000015f900000000000000000000000000000000000000000000000000000000000000020000000000000000000000000426fdc2b5f70d4db53e9e3ebb871493da48568e40000000000000000000000000000000000000000000000000000000000000020000000000000000000000000e21e964c0e17ca7331f161fc42f2de43a7c5e07d00000000000000000000000000000000000000000000000000000000000000200000000000000000000000000000000000000000000000000000000ba43b7400",
          "blockHash": "0x9418b7aae6327b4c78ca126dc480eaacba8bc3a50724c345d797ba997f89f307",
          "blockNumber": "0x88246d",
          "blockTimestamp": "0x6892bbac",
          "transactionHash": "0x30a5e481ed27a8f18edf22ca55e1dc03455fe31dc95cf6f6b2043dbd3c41d460",
          "transactionIndex": "0x48",
          "logIndex": "0x91",
          "removed": false
        }
      ],
      "logsBloom": "0x00000004000040000000000000040000200000000000000000000000000000000000000000000000000000000000000000000000000000000000000000200000000000000000000000000008000000000000000000000000000000004000000410000000020100000008000000000800000000000000100000000030000000080000010000000000000000000000800000000000000000000000000000000000020000000000080400000000000000000000000000000000000100010000000000000002000000000000000002000000000000000100000100000000000020000010800000000000000000000000000004000800000000000000000000000000",
      "type": "0x2",
      "transactionHash": "0x30a5e481ed27a8f18edf22ca55e1dc03455fe31dc95cf6f6b2043dbd3c41d460",
      "transactionIndex": "0x48",
      "blockHash": "0x9418b7aae6327b4c78ca126dc480eaacba8bc3a50724c345d797ba997f89f307",
      "blockNumber": "0x88246d",
      "gasUsed": "0x40637",
      "effectiveGasPrice": "0x101046",
      "from": "0x94c1405e849c1e8c78066451dfad20e211ff3141",
      "to": "0x0bf3de8c5d3e8a2b34d2beeb17abfcebaf363a59",
      "contractAddress": null
    }
  ],
  "libraries": [],
  "pending": [],
  "returns": {},
  "timestamp": 1754446765856,
  "chain": 11155111,
  "commit": "3f67df2"
}